:100000000000042061020000B9020000BB020000F1
:10001000BD020000BF020000C1020000000000009D
:10002000000000000000000000000000C30200000B
:10003000C502000000000000C7020000C902000065
:10004000CD020000CF0200000D180000D302000016
:10005000D5020000D702000041270000DB020000AB
:10006000F9290000091A0000191A0000E302000033
:10007000E5020000E7020000E9020000EB020000D8
:10008000ED020000EF020000F1020000F3020000A8
:10009000F5020000F7020000F9020000FB02000078
:1000A000FD020000FF020000010300000303000046
:1000B0000503000007030000CB020000CB02000094
:1000C000090300000B0300000D0300000F030000F4
:1000D00011030000130300001503000017030000C4
:1000E000190300001B0300001D030000CB020000E9
:1000F000CB02000021030000CB0200001F03000020
:10010000364937480A1A02D0072291438D463549AD
:1001100035480A1A06D00722914381F30988022242
:1001200082F3148831483249324A00F045F83248A7
:100130003249334A00F040F832483349334A00F03C
:100140003BF833483349344A00F036F833483449F1
:10015000344A00F031F834483449354A00F02CF87C
:1001600034483549354A00F027F8354835490022EA
:1001700000F02DF834483549002200F028F83448C2
:100180003449091A082903DB0022026004300160A7
:10019000314A90471F482049884205D00268043000
:1001A00003B4904703BCF7E700208646EC460020E6
:1001B00000212A4A9047FEE7884207D0521A05D00C
:1001C000037801300B700131013AF9D17047884250
:1001D00002D002700130FAE77047000000000420EE
:1001E00000E003200000042000000420F43B000095
:1001F0001C000020600000202403000024030000F5
:10020000B6310000F43B00001C0000201C00002060
:100210002432000024320000243200002432000086
:100220002432000024320000243200002432000076
:10023000F43B0000383C000060000020600000201B
:1002400060000020040A0020040A0020040A0020A4
:10025000040A0020042A002085020000C92A0000A8
:100260000F484FF00701884385460E4880470E48E7
:10027000016841F470010160BFF34F8FBFF36F8FCE
:10028000FFF73EBF09480A490A4A884207D0521A76
:1002900005D0037801300B700131013AF9D1704774
:1002A00000000420E92D000088ED00E00832000085
:1002B000000000201C000020FEE7FEE7FEE7FEE74E
:1002C000FEE7FEE7FEE7FEE7FEE7FEE7FEE7FEE706
:1002D000FEE7FEE7FEE7FEE7FEE7FEE7FEE7FEE7F6
:1002E000FEE7FEE7FEE7FEE7FEE7FEE7FEE7FEE7E6
:1002F000FEE7FEE7FEE7FEE7FEE7FEE7FEE7FEE7D6
:10030000FEE7FEE7FEE7FEE7FEE7FEE7FEE7FEE7C5
:10031000FEE7FEE7FEE7FEE7FEE7FEE7FEE7FEE7B5
:04032000FEE700BF35
:100324007047000007B5044B0093044A402300F0D3
:1003340032F803B05DF804FB4503000061000020BF
:100344002DE9F84389461446B2B10F4B0F4E0325ED
:10035400002743F00108224609EB0701002002F0C0
:10036400FBFC0744241A48B933782BB14FF47A4084
:10037400C047013D02D13570BDE8F88301233370D5
:10038400002CE8D1F8E700BF303200006000002004
:10039400704702F015BDF0B595B01C4616460846E8
:1003A4000D4601F033F81A9B0D93CDE9086400243F
:1003B4002346082205A928460A948DF82C400C945B
:1003C40001F060F8079B0293BDF81830ADF80C30CB
:1003D400BDF81A30ADF80E309DF814308DF8114088
:1003E40003F00302012A1DD1BDF81440059EC3F396
:1003F400C203C4F383148DF81030A20008230EA99D
:10040400284601F03FF8C6F3952608AB0093224630
:1004140002AB0EA9304600F0E1FB284600F0FAFFDB
:1004240015B0F0BD022AF8D1BDF81640C3F3C203DB
:10043400A4098DF810300827082C264628BF082662
:100444003B4632460EA9284601F01CF8A41B08AB13
:1004540002AA31460EA8374400F024FC002CEBD14C
:10046400DBE7704707B5044B0093044A4023FFF7CA
:1004740092FF03B05DF804FBC5040000A200002055
:1004840030B50C4D0FCD89B06C460FC495E80F0004
:1004940084E80F0008A9062341F8203D00220648FD
:1004A40001F080F808B100F0C4FC044B00221A707B
:1004B40009B030BD443200001C000020A10000201F
:1004C40038B50D4B0D4D002018700D4804782D5D86
:1004D400D2B21C4665B1043001F0E2FE08B100F06E
:1004E400A8FC084B1A7812B12378002BFBD038BD36
:1004F4000C3001F0B3FCF1E7E2000020F00500202D
:100504001C000020A100002008B50848084A037810
:10051400D35C33B1043001F06DFEBDE80840FFF751
:10052400AFBF0C3001F044FCF7E700BF1C00002013
:10053400F0050020FFF7A4BF38B5094CFFF729FFE9
:1005440001250421204600F0B9FA6572054CFFF735
:10055400F1FF0421204600F0B1FA657238BD00BFF6
:10056400300000203C000020037813F0030F03F058
:10057400040202D012B910467047B2B103F003036B
:10058400012B03D0022B09D0012070470A68008890
:100594000232C0F3831002440A60F5E70B68428814
:1005A400023303EB92130B60EEE70B6842880133CE
:1005B40003EB92130288F4E72DE9F04F484C87B01F
:1005C4000F460546861C0020019200F087FC236834
:1005D4003B60D4E901231344226801339B1A04F2DB
:1005E4001C4704F5836A04F21448B34219D3019AF0
:1005F4000023002A6CD0012262F3010343F00403B8
:1006040065F389132168A2680A4003320E4400206E
:1006140044F82230266000F063FC012007B0BDE8F6
:10062400F08F0121384600F07DFC504600F090FC2C
:10063400404600F08DFC0DF118096068D4F808B04C
:1006440049F8100D00EA0B00033004EB8000494622
:10065400FFF78AFF029BB0B90BEA030204EB8202A4
:10066400D16803919A1C013303EA0B0B04EB8B0C46
:1006740001F00303012B0292DCF80CB020D0022B12
:1006840004D083460BE00BEA0300DDE7BDF80E302F
:100694009B0903334FEA1B4B02EB9303029340463F
:1006A40000F059FC08B1029B63605946384600F0DB
:1006B40039FCD4E901231344226801339B1A94E7DB
:1006C400BDF80C30C3F383134FEA1B4B1344E5E727
:1006D400022262F3010343F0040365F39F5391E79D
:1006E400B401002008B50F4B0F48FF229A60002286
:1006F400C3F81824C3E90022C3F81424012283F8A0
:10070400202400F03CFE38B9084A094B09499B1AD9
:10071400DB0802469A4200D108BD21F822200132AA
:10072400F8E700BFB4010020F0310000B831000048
:10073400F03100000000002030B50B4C79B10B4AB9
:100744000B49121BD20800239A4201D1002030BD6C
:1007540001EB83056D88854202D00133F4E703463B
:1007640054F83300F3E700BFB8310000F031000063
:1007740000000020094B013903EBC000032909D80C
:10078400DFE801F00A02040604207047007970478C
:10079400407970470020704702207047B83100004C
:1007A400034BD3E90030C31A58425841704700BF85
:1007B400B40100202DE9F04385B0FFF7F1FF0746AF
:1007C400002840F0F2807A4DC5F81804BFF34F8F2B
:1007D4006868AC680DF1100848F8100D204003302B
:1007E40005EB80004146FFF7BFFE009B064600284C
:1007F4005FD104EA0302991C013305EB8202234012
:1008040005EB8303D268DB68029302F00303022B37
:100814000192009162D1BDF8063066484FEA931800
:10082400B8F1500FC14628BF4FF0500969F38F1338
:1008340009F10801ADF8063000F0B9FD07460028BB
:1008440000F0A18000F0E2FD334601A908223846F9
:1008540000F0EFFD009924EA01060136B600B14527
:1008640035D95FFA89F97EB3F6B2A9EB06092140BE
:1008740003315FFA89F4B1464F4E05EB8101082339
:100884004A46384600F0D5FD36B109F10803224640
:100894003146384600F0CDFD009B08F1030803EB18
:1008A40098030093D5F81834002B4AD1D5F8104496
:1008B40058E02A689A4204D86A60384605B0BDE810
:1008C400F08304EA03008AE73B493446D7E7214032
:1008D400033108234A4605EB8101DAE7012B52D1A3
:1008E400BDF804303348C3F38311062928BF062119
:1008F40061F3891302318900ADF8043000F057FD2B
:10090400074600283FD000F081FD3346082201A9A4
:10091400384600F08EFDBDF80420C2F38312B31CE8
:1009240096424FEA8303BDD200994A1C2140033109
:10093400009205EB81010422384600F07AFD01366D
:10094400E9E7384600F066FDFFF72AFF80F0010072
:10095400C7B2B2E7637A23B1236839461B682046DD
:1009640098476468002CF5D1384600F053FD2046C2
:1009740000F0B4FAD5F818340BB9009B6B60002072
:1009840000F0AEFAE0E7D5F8104444B90B4B0C493B
:100994001888000440F0020000F06CF8D4E72368E3
:1009A40020469B6898476468EFE7002785E700BF07
:1009B400B4010020F0310000C00100201400002028
:1009C400703200002DE9F74F284C80460F469246BE
:1009D40001A9012218469B46D4F80890FFF7ECFDC4
:1009E40088B3019D0026A91C5E4506EB010234D1A3
:1009F40000211F4800F076FA80F310006A1C02EA16
:100A0400090204EB8202000405EA0903033340EA05
:100A14001840D06014F8232068F3C50204F823209A
:100A240034F8232066F3891224F8232054F8232071
:100A3400012167F39F2244F8232061F301026FF33D
:100A4400820204F8232094F820341BB1FFF7B2FE8D
:100A54000028FBD103B0BDE8F08F09EA020204EBE1
:100A640082025AF82630D3600136BDE7B401002073
:100A7400D005002000231A46FFF7A4BF13B502AC2B
:100A8400012344F8042D2246FFF79CFF02B010BD59
:100A940007B5CDE9002302236A46FFF793FF03B0AD
:100AA4005DF804FB1FB5CDE90123069B039301AA5E
:100AB4000323FFF787FF05B05DF804FB0F4A30B549
:100AC400D2F810440023214641B90372D2F81044ED
:100AD4004CB9C2F810044160184630BD0D7A9D42ED
:100AE40005D04968F0E7626842606060F4E701336A
:100AF4000A2BE8D14FF0FF33EEE700BFB40100202A
:100B0400084A38B50123D2F8104482F820341D462F
:100B140004B938BD2368657220465B6898476468E9
:100B2400F6E700BFB4010020037A052B10B50C468C
:100B34000FD0437A23B1084A0849204600F065FAE9
:100B44000749204600F061FA2046BDE8104000F055
:100B540051BA002AF8D0F3E7CB320000D0320000BB
:100B6400F0320000C38873B504460D4633B1144A0D
:100B740000921449144A284600F047FA217A0529BC
:100B84001CD0637A4BB1A088FFF7F4FD0F4B1049DA
:100B940053F82020284600F038FA227A0D4BA0881A
:100BA40053F822600021FFF7C7FD0B490346324684
:100BB400284602B0BDE8704000F027BA02B070BD0C
:100BC400CB320000DB320000D33200009832000048
:100BD400D032000000330000F33200002DE9F0436E
:100BE40085B01F460C9D002306460C46904695F89A
:100BF4000C902B7329463846FFF7B4FFB8F1060F63
:100C040009D8DFE808F00412181F283340003146E1
:100C1400284600F0FAF9002229463846FFF784FFF7
:100C240085F80C9005B0BDE8F0832268314628466B
:100C340000F0EBF9EFE7D4E900233146284600F051
:100C4400E4F9E8E7A36800933146D4E90023284691
:100C540000F0DBF9DFE7E3680193A3680093314612
:100C6400D4E90023284600F0D0F9D4E7236902939D
:100C7400E3680193A36800933146D4E9002328462E
:100C840000F0C3F9C7E76369039323690293E36838
:100C94000193A36800933146D4E90023284600F069
:100CA400B4F9B8E708292DE9F84F80460E461746EF
:100CB4001C4636D8002593F80C901D73194610462F
:100CC400FFF750FFDFF87CA0DFF87CB0AE422AD9F2
:100CD40018F805205946204600F097F90135082DEB
:100CE400F4D11649DFF864B0204600F08EF90025EF
:100CF400AE421DD918F805A0504602F0A7F9002805
:100D040014BF52462E225946204600F07EF9013582
:100D1400082DEDD1012221463846FFF705FF84F85E
:100D24000C90BDE8F88F5146204600F06EF9D5E7E7
:100D34000349204600F069F9E9E700BFC632000024
:100D4400C4320000C2320000BC320000C8320000CD
:100D5400074B1B5C1F2B86BF03F01F0305494FF095
:100D6400A041012202FA03F3C1F80835704700BF1D
:100D7400633300000003005008B50020FFF7E8FFCC
:100D84000120FFF7E5FF0220FFF7E2FF0320BDE8A3
:100D94000840FFF7DDBF00000A4B185C1F288ABF1C
:100DA400094B4FF0A04300F01F00D3F804250121A4
:100DB400814021EA02000A40C3F80805C3F80C2563
:100DC400704700BF6333000000030050074B1B5CF7
:100DD4001F2B8ABF064A4FF0A04203F01F03D2F82C
:100DE4001005D840C04300F0010070475F33000095
:100DF40000030050C20710B504460CD54FF0A043C1
:100E04000322C3F83427C3F83827C3F83C27C3F8B0
:100E14004027FFF7B1FFA3070AD54FF0A0430C22E8
:100E2400C3F82C27C3F83027C3F86027C3F8642716
:100E340010BD1FB50021039001AA44F20100CDE9C1
:100E4400011100F003F805B05DF804FB10B572B6AB
:100E5400FFF756FEFFF7AEFC0028FBD1104C1149FA
:100E64002088000440F00100FFF704FE0E4B1B68CD
:100E7400DB0700D500BE20880C49000440F00200C6
:100E8400FFF7F8FDBFF34F8F09490A4BCA6802F414
:100E9400E0621343CB60BFF34F8F00BFFDE700BF99
:100EA4001400002067330000F0ED00E0733300000D
:100EB40000ED00E00400FA0572B6024A136801333B
:100EC40013607047D8050020034A1368013B136080
:100ED40003B962B6704700BFD8050020FFF7ECBF26
:100EE400FFF7F2BF50E8002F0B4640E8003C9CF0AF
:100EF400000FF7D11046704750E8003F43EA010263
:100F040040E8002C9CF0000FF6D11046704750E8E2
:100F1400002F02EA010340E8003C9CF0000FF6D1E8
:100F24001046704750E8003F03EB010240E8002CF4
:100F34009CF0000FF6D11046704750E8003FA3EB39
:100F4400010240E8002C9CF0000FF6D110467047D7
:100F54000121FFF7D1BF0021FFF7D9BF10B590B130
:100F6400D0E9012301689B1ADBB20A60013BDBB2C2
:100F7400FF2B026802D10020107110BD11684C1CB7
:100F840014600B70F2E70E20F7E738B50446002032
:100F9400FFF7A4FF226863681168994213D9481EB9
:100FA400106011F8015CE368A18A01FB0535A368B0
:100FB40011791B1ADBB2994200D213710020FFF79A
:100FC4008FFF284638BD0025F8E738B505460020D0
:100FD4000C46FFF783FF2A681368591C1160E968FF
:100FE400641AA98AB4FBF1F41C700020BDE83840EF
:100FF400FFF776BF826810B504462AB143690168D9
:10100400006998470023A36010BD0EB403B503998B
:1010140029B102AA04AB42F8043D00F06BF802B017
:101024005DF804EB03B07047826830B40468551C63
:101034008560A154D0E901329A4202D330BCFFF753
:10104400D9BF30BC704700002DE9F84F9946DDE95F
:101054000A431746824688460A460126BA420FD2F8
:101064004E4538BF4E4613F0010B01D164B900243C
:101074000125B9F1010F1AD909F1FF397D43F8E7C8
:10108400B2FBF7F20136E9E79B070ED5B9F1000F81
:101094000CBF30252025A642EAD2013C2946504601
:1010A400FFF7C2FF002CF6D1E1E72025F3E7B8FBF8
:1010B400F5F39F42E2D9DFF83890B8FBF5F35046D8
:1010C40019F8031005FB1388FFF7AEFFB5FBF7F51E
:1010D400002DF2D1BBF1000F02D00CB1A64201D316
:1010E400BDE8F88F20215046013CFFF79DFFF4E74F
:1010F400803300002DE9F74F054690460E4600293F
:1011040000F03A8116F8011B002958D0252940F037
:10111400D180002702E047F001071646324612F854
:10112400013B2D2BF7D0302B04D02B2B05D147F0CE
:101134000407F2E747F00207EFE700242A2B06F141
:1011440001021BD1D8F80030191D1B68C8F8001023
:101154001C44164633782E2B1CD101364FF0000A5E
:10116400314611F8012BA2F13000092814D80A23C2
:1011740003FB0A23A3F1300A0E46F1E712F8013CFF
:10118400A3F130010929E5D80A2101FB0434303CDC
:101194001646D3E74FF0000A324612F8011B01F05D
:1011A400FB0068281646F8D0692916D054D8582967
:1011B40070D00ED825297DD03378002BA2D12B7B7B
:1011C400002B00F0D980284603B0BDE8F04FFFF7AC
:1011D40011BF632968D06429EED1D8F80020D2F871
:1011E4000090111D89EAE972C8F80010A2EBE972B7
:1011F4004FF0010B092A61DCD34538BFD3462CB12B
:10120400B9F1000F01DB790700D5013CBA0702D51B
:10121400BAF1000F04D0FB0702D4002C54D10024EF
:10122400B9F1000F58DAC9F100092D212846FFF75A
:10123400FBFE07F00302022A05D1BAF1000F02D126
:10124400002C4DD10024CDE9004753460A224946DB
:101254002846FFF7F9FEAFE7732954D016D8702952
:10126400AAD1D8F800301A1DC8F800203021284629
:101274001C68FFF7D9FE78212846FFF7D5FE002227
:101284000823CDE9003221461022E1E775292FD049
:10129400782991D1D8F800100A1DC8F80020CDE9AA
:1012A4000047534610222CE0D8F800301A1D197854
:1012B400C8F800202846FFF7B7FE7DE70A230BF1A4
:1012C400010B92FBF3F295E7A345A9D2202128460E
:1012D400013CFFF7A9FEA0E77807AAD52B21A5E7D3
:1012E400A345B0D230212846013CFFF79DFEA7E775
:1012F400D8F80010CDE900470A1DC8F8002053466D
:101304000A220968A4E7D8F800301A1DC8F800209A
:10131400F907D3F8009012D54F46A7EB090B17F83D
:10132400011B41B9A345BFF447AF20212846013C26
:10133400FFF77AFEF6E72846FFF776FEEDE7B9F108
:10134400000F17D0484601F004FF0746BC4200D9FD
:1013540054B909F1FF3919F8011F00293FF42CAFE2
:101364002846FFF761FEF6E720212846013CFFF7F7
:101374005BFEEBE74F46E9E703B0BDE8F08FFFF70C
:10138400EDBDF8B546790146721E05460023934229
:101394002D6803D30024A64202D8F8BD0133F6E732
:1013A4000F682846FFF711FE01343946F3E72DE9AB
:1013B400F843868ACD1C0746FFF7E7FD043E354413
:1013C4000446B5FBF6F5F0B14FF48073EDB28380BB
:1013D400C680013D076081464FF00008A84512D23F
:1013E4003846FFF7D2FD064648B16379013363718D
:1013F40008F10108C9F8000007608146EEE72046BD
:10140400FFF7BFFF34462046BDE8F88301210430CE
:10141400FFF788BD10B5012104460430FFF78DFDA8
:1014240010F0FF0F04D12046BDE81040FFF7A9BF1C
:1014340010BD2DE9F843C7880546181D8846B0FB42
:10144400F7F4164607FB14003CB9A7EB0009B145B5
:1014540028BFB14626B9BDE8F8832D68013CF3E7FF
:101464000430A6EB09064A4608EB0401284401F0BF
:10147400F2FDB7424C442D68B9464FF0000028BF36
:10148400B146E7E72DE9F843C7888846191D0546A4
:10149400B1FBF7F4164607FB14113CB9A7EB01099D
:1014A400B14528BFB14626B9BDE8F8832D68013C93
:1014B400F3E704312944A6EB09064A4608EB040085
:1014C40001F0C9FDB7424C442D68B9464FF0000104
:1014D40028BFB146E7E700000D4930B5A1F58C728D
:1014E4000225914201D800200EE08B1ADB1093FBF9
:1014F400F5F302EBC30452F83330834205D802D229
:1015040004F10802EDE7606830BD2146E9E700BF59
:10151400BC34000008B5FFF7DFFF024B002808BF0A
:10152400184608BD90330000034B187810B9012207
:101534001A70704785207047DC0500201FB50378BA
:101544008DF8003043680193037A8DF80830C3683E
:101554000393054A054B684653F8213052F821108D
:10156400984705B05DF804FBE0050020E80500207D
:101574001FB503788DF800304368019383688DF8B4
:101584000830C3680393054A054B684653F8213075
:1015940052F82110984705B05DF804FBE0050020DF
:1015A400E8050020F0B5194B0678DFF870E043F841
:1015B4002620174B94460A6943F826204B7F0EF8E1
:1015C40006300C4607460FCC89B06D460FC594E82B
:1015D4000F0085E80F001EF80630049653B1BCF1E5
:1015E400000F0C4A694608BF0022381D00F020FD98
:1015F40009B0F0BDBCF1000F074A694608BF0022DC
:1016040007F10C0000F0FAFAF2E700BFE805002049
:10161400E00500204115000075150000F0050020CC
:101624002DE9F84F1E4E1F4F80464FF0000A042547
:101634004FF001095FFA8AFB002009FA0BF4FFF767
:101644004DFC344208D03B6814EA030201BF234333
:101654003B6088F800B015460020FFF741FCCDB987
:10166400114B1249188800045A4640F00300FFF752
:1016740005FA0D4B28461C88FFF74CFF240444F060
:10168400030403460A4A0B492046FFF701FA284699
:10169400BDE8F88FA6430AF1010ACBD1E9E700BF00
:1016A400FFFF0F00F405002014000020B1380000F3
:1016B4004D380000C838000073B50B4689B382B3B7
:1016C40001248440C4F31301174E31B31749096848
:1016D4000C4224D0C4003588154904F1804404F533
:1016E400F8342D04C4F81035C4F8142500920246C9
:1016F40045F00300FFF7D6F9002435882046FFF7AC
:1017040009FF2D0445F0030503460A4A0A49284601
:10171400FFF7BEF9204602B070BD0724EDE70824A8
:10172400EBE70E24F6E700BF14000020F4050020C8
:10173400E638000064380000C838000070B50124A1
:1017440084400B46C4F313010246134EF9B1134906
:1017540009680C421DD03488114900F51170240425
:1017640041F820300F4944F00300FFF791F90025B8
:1017740034882846FFF7CEFE240444F003040346CD
:10178400094A0A492046FFF783F9284670BD072510
:10179400EEE70825ECE700BF14000020F405002064
:1017A40000F00140253900007C380000C8380000F2
:1017B40038B5012303FA00F0C0F313031BB10D4B3A
:1017C4001B68184213D00C4B0025C3F804050B4BBF
:1017D40028461C88FFF79EFE240444F003040346B5
:1017E400074A08492046FFF753F9284638BD08251B
:1017F400EDE700BFF405002000F0014014000020D4
:1018040099380000C8380000014B1B68184700BF16
:10181400F805002038B50A4B98420D460CD100203B
:10182400FFF75CFB074B1C7914B901221D601A7188
:101834000020FFF755FB0CB9002038BD1120FCE750
:1018440000200040F8050020034B984201BF034BE1
:1018540000221A601A71704700200040F805002029
:101864002DE9F743002406460F4600F5A0754FF412
:101874008038A14604F150002B68800080B26BB11F
:10188400D6F8043308FA04F21A4207D0C5F80090D7
:101894002B680193019BD7E9003198470134042C4C
:1018A40005F10405E6D103B0BDE8F083F7B5057989
:1018B400334C0C266E43A7193B7A002B5ED1A25100
:1018C4004A687A60467900681F46DAB296424BD875
:1018D400020B53B2CE78002BA8BF03F16047D2B2FB
:1018E4004FEA5313B8BF02F00F0C4FEA4616B4BFC9
:1018F400244F07F561474FEA8303F6B203F16043CF
:10190400B4BF07F80C6087F8006303F56143012650
:1019140002F01F0206FA02F2C3F880211A60D0F81E
:1019240004254B7822F0030203F003031343C0F8A9
:101934000435D0F808258B7822F0030203F0030362
:101944001343C0F80835D0F810250B7822F00F02A5
:1019540003F00F031343C0F810350C2303FB0544B5
:101964000020267203B0F0BD03F15002013340F8A9
:10197400227050F822200192019AA6E70820F1E78C
:101984000006002014ED00E0036801221A600379C8
:10199400034A0C2101FB032302221A72704700BF81
:1019A4000006002037B54FF480348C4000687BB1CA
:1019B40001F150039B000025C550C3580193019BBE
:1019C400C0F8044301F5A87140F8212003B030BDEC
:1019D400C0F80843F6E7F0B404689DF81070D4F832
:1019E400005240F201168E4025EA0605C4F8005262
:1019F400D4F800522B43C4F800323B46F0BCFFF746
:101A0400D1BF000001490248FFF72ABF00060020A9
:101A14000090004001490248FFF722BF0C06002055
:101A240000A000400023435082B043580193019B1F
:101A340002B070470A4610B54FF48E71FFF7F2FFFB
:101A4400136A9168C95C136A01331362C0F81C15E8
:101A540010BD8B690A4610B54FF4847123B9FFF7A2
:101A6400E1FFD0F8183510BDFFF7DCFF536AD168E9
:101A7400D0F81805C854536A01335362F3E70000E1
:101A84001FB501238DF80030044BCDE90110D3E9D3
:101A940000126846904705B05DF804FB1806002064
:101AA40030B54C4AD2F8043313F4007F85B01546A0
:101AB4004FD0D2F82431002B4BD04FF49271104602
:101AC400FFF7B0FF4FF40173C2F80833424B93F8A9
:101AD400291009B9012151603E4902228DF80020E4
:101AE400D1F88024C1F8802403929A690292DA68BA
:101AF40001920022C3E906226846D3E90012904706
:101B04003448D0F81C315BB133490A6A4B699A42B4
:101B14000A464BD291F82830002B47D1FFF78AFFB1
:101B24002C4AD2F8443193B14FF4A2711046FFF716
:101B340079FF294B93F8291009B1012111609A69A1
:101B44002AB100229A61586AD968FFF799FF05B053
:101B540030BDD5F804335B07D2D5D5F80831002B56
:101B6400CED01D4C1B482146FFF773FF636AA26960
:101B74009A422346C4D1E269E1684AB12369E36029
:101B84000023606AA261E3616362FFF779FFB7E74C
:101B940094F829200AB901226A600E4A4FF40170B0
:101BA400C2F8080300229A61586AEEE74FF48E7176
:101BB4000848FFF737FF51690029B1D0002302918B
:101BC40091688DF80030019153616846D2E90013A1
:101BD4009847A5E700200040180600201F2886BF6C
:101BE40000F01F00044B4FF0A04300F5E070022208
:101BF40043F82020704700BF000300502DE9F8434C
:101C0400664B047991462C2202FB0432064692F874
:101C14002A200D469846002A40F0BC80604900689E
:101C2400FFF7F8FD0746002840F0B68029684A1CF3
:101C340010D01F2987BF01F01F035A4A0B464FF0EB
:101C4400A0420120984003F5E073C2F80805032080
:101C540042F823006868431C0DD01F288BBF00F096
:101C64001F0303464F4A4FF0A04203F5E0734FF0C1
:101C7400000C42F823C03368AA6995F814C0C3F86D
:101C840024256A7DBCF1010F4CEA0202C3F86C25DD
:101C9400C3F81405C3F80C152BD1A968481C0DD042
:101CA4001F298BBF01F01F020A463E484FF0A04097
:101CB40002F5E0724FF0000C40F822C0E868421CC4
:101CC40013D01F2887BF00F01F0C364A84464FF0FC
:101CD400A0424FF0010E0EFA0CFE0CF5E07CC2F8A7
:101CE40008E54FF0030E42F82CE0C3F80805C3F8EA
:101CF40010152C23634308EB0302C2F804902A69ED
:101D040048F80320B9F1000F31D04FF48E713068D8
:101D14002D7FFFF787FE30684FF4A271FFF782FE34
:101D24003268214BC2F80433120B53B2002BA8BF04
:101D340003F160404FEA53134FEA4511BABF1B4801
:101D440002F00F0500F561404FEA8303C9B203F1C5
:101D54006043B4BF415580F8001303F5614302F0BA
:101D64001F02012101FA02F2C3F880211A603368CC
:101D74000422C3F800252C2303FB04830022C3E9B7
:101D8400062283F829205A61012283F82A20384642
:101D9400BDE8F8830827FAE71127F8E718060020BA
:101DA400A51A0000000300508000020014ED00E0BA
:101DB4002DE9F04103680479254D0022C3F800257C
:101DC4002C2202FB04520646526872B1214AC3F81F
:101DD4000823190B4AB20120520901F01F0100FA2D
:101DE40001F120321C4840F82210D3F80C05D3F836
:101DF4001485D3F80815D3F810754FF0FF329042CC
:101E0400C3F81425C3F80C25C3F80825C3F8102516
:101E140001D0FFF7E3FEB8F1FF3F02D04046FFF7E1
:101E2400DDFE7A1C02D03846FFF7D8FE4B1C02D0E8
:101E34000846FFF7D3FE3068FFF706FD2C2303FBAB
:101E44000454002384F82A306360BDE8F08100BFA5
:101E5400180600208402020000E100E02DE9F843A6
:101E6400224F06794FF02C0909FB067480466569F8
:101E7400002D37D16261A16025624FF48E71006834
:101E840084F82850FFF7CEFDD8F8000001238360C2
:101E94002146FFF7CFFD6368A1462BBBD8F800505D
:101EA400226A63699A4212D3D8F80030D3F81C210D
:101EB400002AFBD00122DA6000202C2303FB0676E3
:101EC40000237361BDE8F88394F8283043B9D5F84A
:101ED4001C31002BF8D049462846FFF7ABFDDFE75D
:101EE4000F20EAE71120EDE72846EBE7180600206B
:101EF4000023435082B043580193019B02B07047C2
:101F04001FB501238DF80030054B8DF808000191B1
:101F14006846D3E90012904705B05DF804FB00BFA2
:101F2400440600207FB5384AD2F82461002E49D0F7
:101F340010464FF49271FFF7DBFF02238DF8003057
:101F4400D2F88034C2F880340393D2F83C358DF84B
:101F540008302E4BDA6801920022C3E90622684653
:101F6400D3E900129047284AD2F8443173B14FF4B0
:101F7400A2711046FFF7BCFF244B996931B10021CF
:101F84009961D2F83C05D968FFF7BAFF1E4AD2F826
:101F94002031ABB14FF490711046FFF7A9FF1B4BF2
:101FA400596969B1D2F84C158DF808100022996866
:101FB4008DF8002001915A616846D3E900129047D8
:101FC40004B070BDD2F81031002BCCD04FF488711E
:101FD4001046FFF78DFF0D4BD2F83C0599698842F6
:101FE400C1D1DC69D96864B1D2F8005225F020056A
:101FF400C2F800521A699C61DA60DE61FFF780FF63
:10200400B1E79C61FAE700BF0020004044060020CD
:102014001F2886BF00F01F00044B4FF0A04300F5BB
:10202400E070022243F82020704700BF00030050F4
:102034002DE9F8436A4B06799146242202FB0632C5
:10204400044692F820200D469846002A40F0C480A9
:1020540064490068FFF7DEFB0746002840F0BE80B5
:102064002868421C10D01F2887BF00F01F035E4A57
:1020740003464FF0A0420121994003F5E073C2F8F2
:102084000815032142F8231069684B1C0DD01F2941
:102094008BBF01F01F030B46534A4FF0A04203F5D8
:1020A400E0734FF0000C42F823C02368AA6995F846
:1020B40014C0C3F824256A7DBCF1010F4CEA020266
:1020C400C3F86C25C3F80C05C3F814152BD1A96803
:1020D400481C0DD01F298BBF01F01F020A4642483D
:1020E4004FF0A04002F5E0724FF0000C40F822C01F
:1020F400E868421C13D01F2887BF00F01F0C3A4A1F
:1021040084464FF0A0424FF0010E0EFA0CFE0CF57F
:10211400E07CC2F808E54FF0030E42F82CE0C3F867
:102124000805C3F810152423734308EB0302C2F80F
:1021340004902A6948F80320B9F1000F3BD04FF40A
:10214400887120682D7FFFF7D3FE4FF490712068CB
:10215400FFF7CEFE4FF492712068FFF7C9FE2068A6
:102164004FF4A271FFF7C4FE2268204BC2F8043377
:10217400120B53B2002BA8BF03F160404FEA531374
:102184004FEA4511BABF1A4802F00F0500F5614045
:102194004FEA8303C9B203F16043B4BF415580F8E9
:1021A400001303F5614302F01F02012101FA02F258
:1021B400C3F880211A6023680822C3F80025242369
:1021C40003FB06830022C3E906225A61012283F835
:1021D40020203846BDE8F8830827FAE71127F8E7F6
:1021E40044060020291F00000003005010030200D1
:1021F40014ED00E02DE9F04103680479254D002237
:10220400C3F80025242202FB04520646526872B128
:10221400214AC3F80823190B4AB20120520901F0DC
:102224001F0100FA01F120321C4840F82210D3F8B3
:102234000C05D3F81485D3F80815D3F810754FF0AE
:10224400FF329042C3F80C25C3F81425C3F80825BF
:10225400C3F8102501D0FFF7DBFEB8F1FF3F02D031
:102264004046FFF7D5FE7A1C02D03846FFF7D0FE71
:102274004B1C02D00846FFF7CBFE3068FFF7E4FAA8
:10228400242303FB0454002384F820306360BDE856
:10229400F08100BF440600201003020000E100E0CA
:1022A40001F06043B3F1005F2DE9F041074632D1FC
:1022B4001C4B0679242505FB063598466C6964BBDE
:1022C4006A61A96000684FF49071FFF711FE4FF442
:1022D400AC713868FFF70CFE3B686A69A968C3F8FB
:1022E4004415C3F8482501229A606A68BAB9D3F83C
:1022F4002011D3F8582149B9002AF8D00F202423FB
:1023040003FB068600237361BDE8F081002A14BF35
:102314000F200020F3E71020F6E71120F4E7204611
:10232400F2E700BF4406002000F1804000F5C04001
:10233400002382B0036003680193019B02B07047DD
:1023440003681F2B83BF03F01F03036001484FF092
:10235400A04070470003005007B502AB43F8040DDA
:102364001846FFF7EDFF019B00EB8300D0F8003720
:1023740023F44033C0F80037D0F8003743EA014172
:10238400C0F8001703B05DF804FB0000054B4FF0E4
:10239400FF32072843F8202084BF1B1883F84C2001
:1023A400704700BF6806002010B5174C94F85B30E6
:1023B40043BBFF21E2180133302B82F82410F9D1FA
:1023C4000021C8B2FFF7E2FF01310929F9D1062241
:1023D40000210E4800F068FE0D4BE02283F806232E
:1023E4004022C3F880214FF4BE701A60FFF79CFFAF
:1023F400084B4FF00042C3F80423012384F85B30F8
:10240400002010BD0820FCE768060020BD0600205F
:1024140000E100E00060004037B517490D1804469C
:1024240095F82400072809D8FFF7B0FF95F9243060
:10243400124A03F5A273002042F823000B19FF226D
:102444000F4D83F82420E10804F0070301229A4089
:102454006B5C13420ED002A840F8044DFFF770FFE6
:10246400019B03F5E073022440F823406B5C23EAEC
:1024740002026A5403B030BD6806002000600040C8
:10248400BD060020F7B5404F3B18044693F92430AD
:10249400002B944675DA8B78C3F34003002B15BFE9
:1024A4000025082508200920854202D1042003B014
:1024B400F0BD57F8252001324FEA850649D1381975
:1024C40047F825C080F8245013B97B1983F84C4091
:1024D4008B785A071BD4D8073DD502A840F8084D7D
:1024E400FFF72EFF009B00EB8300D0F8003723F0AA
:1024F4000203C0F800372548E20804F0070C012362
:1025040003FA0CF310F802C043EA0C0383548878EE
:1025140091F800C010F002002AD006F1804303F5C0
:10252400C0432402D3F8102522F44F3222F440721F
:10253400C3F810254FEA0C4CD3F8102504F47C544E
:102544000CF4403C44EA0C041443C3F81045002046
:10255400ADE70135A8E702A84A7840F8044DFFF733
:10256400EFFE019B03F5E073920040F82320C2E7DD
:10257400083D3D4495F8544044EA8C1C85F854C009
:1025840095E7082093E700BF68060020BD060020F9
:1025940073B5224C2518064695F92420072A1ADD1E
:1025A400224492F84C309B09032B10D102A840F826
:1025B400046DFFF7C5FE019AD0F81035D340DB0750
:1025C40007D402213046FFF7C7FE02B070BD012BCD
:1025D400F7D00321F6E7D3B2072BF6D8930003F123
:1025E400804303F5C043D3F8100540F00100C3F85D
:1025F400100502F14000800080B2FFF795FE00292B
:10260400E3D095F9243054F82330002BDDD0012396
:1026140003FA02F2024BC3F80423D6E7680600204B
:10262400006000400E4B034493F92420072A02DD86
:102634000021FFF791BED3B2072B10D8930003F10A
:10264400804303F5C043D3F8101521F00101C3F80A
:102654001015012303FA02F2024BC3F80823704752
:102664006806002000600040F7B50446FFF7DAFF73
:102674001749184E0B19E50893F92430DAB2072AE2
:102684009FBF03F5A273144A002042F8230004F00C
:10269400070301229A40735D13420ED002A8022759
:1026A40040F8044DFFF74CFE019B03F5E07340F83E
:1026B4002370735D23EA02027255214491F82400C9
:1026C400FFF764FEFF2381F8243003B0F0BD00BFA0
:1026D40068060020BD0600200060004070B50C4D67
:1026E40000242E462B1993F924309A1C09D1204634
:1026F400FFF792FE0134302CF4D1002386F85B30CE
:1027040070BD002BF6DB2046FFF7AEFFF2E700BFFB
:1027140068060020084B184490F92400C3B2072B24
:102724009DBF4030800080B24FF4BE7000F1804005
:1027340000F5C040704700BF680600202DE9F0474F
:10274400002488B0CDE902445D4A5E4E5E4D01210D
:102754001368A2F5C040012B80B206D1D6F8043329
:102764000B4202D0FFF7E0FD0C430432AA424FEAC9
:102774004101EDD1554B1B68012B0ED14FF4BE70B6
:10278400FFF7D2FD4FF0A04344F00044D3F81035D6
:1027940002934F4BD3F81035039314F0FF0F1AD064
:1027A4004C4F00250126344210D0AB0003F1804386
:1027B40003F5C043D3F81005D3F8101557F82530A6
:1027C400C0F30520C1F3014103B198470135082D39
:1027D4004FEA4606E7D1002C31DA04AE0023049315
:1027E40073604FF0FF33CDE906333A4FDFF8E090E2
:1027F4004FF0010897F95430DAB2013322F0C004E3
:102804001DD008A8E30800EB030A02F007011AF838
:10281400080C08FA01F1084211D03819920990F90C
:10282400240057F820509DB9032A08D112E04FF034
:10283400010A11462046A847BAF1000F27D108B073
:10284400BDE8F087022BFAD1032A33D1114619E0EF
:10285400032A02D1F05C0843F05408A840F81C4D48
:10286400FFF76EFD019B03F5E07350F823301AF86F
:10287400180C0842C3F30143E4D1032BDFD1032A2C
:1028840018D102212046FFF767FD002DCFD14FF06C
:10289400A0430299D3F81025D9F81035914202D1FA
:1028A40003999942CBD002920393049A059B069212
:1028B40007939FE7002DC2D04FF0000AB9E700BF8D
:1028C4000061004000600040206100407C610040E5
:1028D400000300506806002070470000054A136892
:1028E400591C1160044AD2F84015044A42F82310D6
:1028F400704700BFD806002000900040DC0600208E
:102904002DE9F041354D36492888364C0004A8B0ED
:1029140040F00300FEF7AEF8FFF7E0FE0220FEF7FA
:102924003BFA00231846012154F82320653A302A43
:102934008CBF02460A464DF823200133282BF3D1DD
:10294400294CD4E90032ADF1040000214FF4004CCD
:1029540050F8047F4CFA01F607FB06330131076C8B
:10296400102907FB0622F3D12048C4E9003201688C
:102974001FAF00264FF0800848FA06FC57F804EF12
:102984000136082E0EFB0C11F6D10160C3F30720AB
:1029940050FA83F3C2F30720034453FA82F331EA73
:1029A40003031EBF4DF6AD624BF6EF63C4E900238B
:1029B400288823680E490004002240F00300FEF733
:1029C40067F8288863680A490004012240F003007C
:1029D40028B0BDE8F041FEF75BB800BF140000204A
:1029E40080390000DC060020CC060020C806002048
:1029F4008E3900000B4BD3F8402192B10A4A0121D1
:102A040011700022C3F840214FF0A042D2F80435DF
:102A1400D94301F0004103F00043C2F80815C2F89D
:102A24000C35704700800040C40600200D4B0E4A50
:102A340010B50021012411701C64C3F840114FF437
:102A44008031C3F80413D3F840150844C3F8400593
:102A5400117821B14FF48032C3F8082310BD20BF90
:102A6400F6E700BF00800040C40600204FF080431A
:102A74000022C3F8002101221A60D3F80021002AA1
:102A8400FBD00E4B0022C3F804250422C3F8102502
:102A94000322C3F808254FF0FF32C3F808234FF48C
:102AA4008032C3F80423064A4FF48071C2F88011BF
:102AB40011600122DA601A60704700BF0080004094
:102AC40000E100E07FB54FF400410020FDF70AFE6D
:102AD40008B1FEF7AEF90120FEF78CF90220FEF7EB
:102AE40089F9FDF729FD042300248DF808304E4AA6
:102AF4004E488DF80940032302A98DF80A30FEF7E9
:102B0400D5FE08B1FEF795F94848FEF73DFF0723C7
:102B14008DF808400394464A46488DF80B3001244A
:102B240002A98DF809408DF80A40FEF7BFFE23463E
:102B3400282200213F480094FEF74DFF3D48FEF750
:102B440023FF4FF0A0430322C3F87C274FF0004239
:102B5400C3F80825FFF78AFFFEF7E6FC08B1FEF785
:102B640068F93548FEF75CFD08B1FEF762F93348B1
:102B7400FEF756FD08B1FEF75CF92F4C1F202578AF
:102B8400FFF7C8FD2E4A01462846FEF795FD254667
:102B940008B1FEF74EF9294C1F202678FFF7BAFD3D
:102BA400284A01463046FEF787FD08B1FEF741F991
:102BB40025492078FEF7C2FD08B1FEF73AF92878D6
:102BC400FEF7F6FD2078FEF7F3FD0020FEF7FEF891
:102BD4000028FAD00020FEF7DFF84FF47A70FFF7F0
:102BE40025FF4FF47A70FFF721FF5020FFF71EFFF7
:102BF40002238DF808308DF80A3003238DF809304C
:102C0400FFF76CFDFFF7D0FB08B1FEF712F90F4A8E
:102C140002A91F20FFF736FC08B1FEF70AF90121CB
:102C24001F20FFF7B5FCFEE7DD2800007039000027
:102C34000529000078390000D4060020D5060020BC
:102C440008A00040409000400C900040E1280000A3
:102C54000369C1688B429DBF8268D21802F1FF32BA
:102C640003F1FF3394BF501A581A70472DE9F0410D
:102C7400D0E902670446F61B40689642884615462A
:102C8400384405D900F0E7F93D44E560BDE8F0813A
:102C94003246AD1B00F0DFF92A4608EB06016068F6
:102CA40000F0D9F9F1E72DE9F843C56806468946ED
:102CB40017464FF000083469B3687068A54228BF0E
:102CC400E418013C621B5C1BBC4228BF3C46944296
:102CD40028BF144649462844224600F0BCF9B3688C
:102CE4002544AB4208BF00253F1BA044A144F56026
:102CF400E1D14046BDE8F88310B5114C114AA261F8
:102D04000223C4E90433104BE361A2644FF400735B
:102D14000E4A2362E264002310220D49A362E01DDF
:102D24006362E362A3656365E365226500F0EFF91E
:102D34000849204600F0EBF92023A37110BD00BF21
:102D44007C070020A039000004080020F4070020BC
:102D5400A9390000AD390000F8B5184C182300FB60
:102D6400033503FB00402544C46A012C0F46164674
:102D740011D003D3022C1BD000240AE02846FFF70D
:102D840067FF864205D8324639462846FFF76EFF6C
:102D940034462046F8BD2846FFF75AFF864234469B
:102DA40028BF0446224639462846FFF75FFFF0E76E
:102DB4002846BDE8F840FFF776BF00BF7C07002037
:102DC400FFF79ABF054B1B68082B01BF044B18681B
:102DD400B0FA80F0400918BF00207047300100109D
:102DE4003401001008B54FF080430022C3F80C21D1
:102DF400C3F81021C3F838254FF0805203F540433F
:102E0400D2F80414C3F82015D2F80814C3F8241512
:102E1400D2F80C14C3F82815D2F81014C3F82C15E2
:102E2400D2F81414C3F83015D2F81814C3F83415B2
:102E3400D2F81C14C3F84015D2F82014C3F8441572
:102E4400D2F82414C3F84815D2F82814C3F84C1542
:102E5400D2F82C14C3F85015D2F83014C3F8541512
:102E6400D2F83414C3F86015D2F83814C3F86415D2
:102E7400D2F83C14C3F86815D2F84014C3F86C15A2
:102E8400D2F84424C3F87025FFF79CFF10B1384BE7
:102E9400384A1A60FFF796FF18B1374BFB22C3F884
:102EA4001825FFF78FFF48B13449354B0A681B6872
:102EB40022F00F0203F00F0313430B60FFF782FFAE
:102EC40018B1304B4FF400721A604FF08043D3F8BE
:102ED4000024D20744BF6FF00102C3F800242A4A39
:102EE400D2F8883043F47003C2F88830BFF34F8FB0
:102EF400BFF36F8F4FF01023D3F80022002A03DBB7
:102F0400D3F80432002B2FDA204B0122C3F8042516
:102F1400D3F80024002AFBD04FF010221221C2F86B
:102F24000012D3F80024002AFBD04FF01023122201
:102F3400C3F80422154B1A46D3F800140029FBD019
:102F44000021C3F80415D2F80034002BFBD0BFF3E2
:102F54004F8F0D490E4BCA6802F4E0621343CB60F5
:102F6400BFF34F8F00BFFDE70A4B0B4A1A6008BD41
:102F74008C5600404881030000F00040E40E0040FD
:102F8400580200104096024000ED00E000E00140CD
:102F94000400FA05480000200090D0037F2805D8DB
:102FA400034B185C034B5B5C184070470020704770
:102FB400B4390000343A0000A0F16103192B98BF22
:102FC40020387047A0F14103192B98BF2030704777
:102FD4007F2805D8034B185C034B5B5C1840704793
:102FE40000207047B4390000343A0000A0F16103B6
:102FF400192B98BF20387047A0F14103192B98BFB3
:10300400203070477F299ABF017001206FF02E0095
:1030140070475AB10A787F2A0AD800B102600021A9
:1030240019605960501A18BF01207047002070477A
:103034006FF02E007047000008B5034B5B689B6877
:103044001B68984708BD00BF4C00002008B5092143
:10305400FFF7F2FF08BD844640EA010313F0030FB3
:1030640018D18446202A0BD32DE9F007B1E8F807DC
:10307400A0E8F807A2F12002202AF7D2BDE8F00761
:10308400042A07D351F8043B40F8043BA2F104029C
:10309400042AF7D2002A05D011F8013B00F8013BBD
:1030A400013AF9D1604670478446002A2DD010F0C9
:1030B400030F04D000F8011B013A26D0F7E7C9B288
:1030C40041EA012141EA0141202A12D3A2F120025E
:1030D4002DE9F0030B460C460D460E460F46884676
:1030E4008946A0E8FA03203AFBD2BDE8F003203277
:1030F4000BD0042A05D340F8041B043A05D0042A53
:10310400F9D200F8011B013AFBD160467047024630
:1031140010F0030F16D111F0030F13D12DE9F000B5
:103124004FF001374FF0803351F8044BA4EB0705FF
:1031340025EA04051D4002D142F8044BF4E7A1F14D
:103144000401F0BC11F8013B02F8013B002BF9D15A
:10315400704700F1010110F0030F11D010F8012B9A
:10316400002A23D010F0030F0AD010F8012B002AF4
:103174001CD010F0030F03D010F8012B002A15D037
:103184002DE970004FF001324FF0803350F8044BBA
:10319400A4EB020525EA04051D4000D1F6E7A0F1E1
:1031A400040070BC10F8012B002AFBD1A0EB010035
:0231B400704762
:1031B80069390000000000005439000000000000D8
:1031C80058390000000000005E39000000000000CF
:1031D8006339000000000000813200000000030392
:0831E800853200000000000325
:1031F000E4000020AC010020B4010020EC0000201D
:08320000180000201800000076
:1032080000000000000000000000000000000000B6
:0C321800000000000000000000000000AA
:103224000000000000000000000000000338FDD88A
:1032340070470000290300009503000025030000E7
:10324400FFFFFFFFFFFFFFFFFFFFFFFFFFFFFFFF8A
:1032540000000000000000000000D601070100008B
:10326400690400000D050000670400004261636BFF
:10327400656E647320666C75736865640061707054
:103284000062616C6C6F632E6C6F675F6D656D704F
:103294006F6F6C00CB32000014330000D332000097
:1032A4001C330000243300002C33000034330000AE
:1032B4003C330000443300002025303278002020C5
:1032C40020007C002563001B5B306D002573001B10
:1032D4005B313B33316D0025734C6F67732064722F
:1032E4006F70706564202825642925730D0A003CDD
:1032F40025733E2025733A200000000000000000E2
:103304006D3300004C330000543300005933000087
:103314001B5B313B33306D001B5B313B33326D0043
:103324001B5B313B33336D001B5B313B33346D002E
:103334001B5B313B33356D001B5B313B33366D001A
:103344001B5B313B33376D007761726E696E6700CA
:10335400696E666F006465627567000B0C18190D61
:103364000E0F10466174616C206572726F720053A7
:10337400797374656D20726573657400303132330E
:10338400343536373839414243444546556E6B6EC1
:103394006F776E206572726F7220636F64650000D0
:1033A40000000000BC34000001000000C83400002C
:1033B40002000000E63400000300000007350000AE
:1033C400040000001A350000050000002B35000041
:1033D400060000003F3500000700000057350000DC
:1033E400080000006F350000090000008735000068
:1033F4000A000000A03500000B000000B8350000F2
:103404000C000000CF3500000D000000E335000083
:103414000E000000F53500000F0000000436000027
:103424001000000018360000110000002F360000C4
:10343400800000003E360000810000005F3600007E
:10344400820000007B3600008300000097360000F5
:1034540084000000B536000085000000D636000068
:1034640086000000FB3600009000000012370000C8
:103474009100000030370000920000004E37000039
:1034840000820000633700000182000081370000E1
:10349400028200009D37000000840000B93700005C
:1034A40001840000DD3700000284000007380000BA
:1034B400038400002C3800004E52465F53554343AA
:1034C400455353004E52465F4552524F525F535636
:1034D400435F48414E444C45525F4D495353494E16
:1034E40047004E52465F4552524F525F534F465427
:1034F4004445564943455F4E4F545F454E41424C07
:103504004544004E52465F4552524F525F494E5415
:1035140045524E414C004E52465F4552524F525F07
:103524004E4F5F4D454D004E52465F4552524F52ED
:103534005F4E4F545F464F554E44004E52465F45D2
:1035440052524F525F4E4F545F535550504F525446
:103554004544004E52465F4552524F525F494E56C3
:10356400414C49445F504152414D004E52465F45E3
:1035740052524F525F494E56414C49445F53544155
:103584005445004E52465F4552524F525F494E5683
:10359400414C49445F4C454E475448004E52465FA7
:1035A4004552524F525F494E56414C49445F464C36
:1035B400414753004E52465F4552524F525F494E67
:1035C40056414C49445F44415441004E52465F4584
:1035D40052524F525F444154415F53495A45004E41
:1035E40052465F4552524F525F54494D454F5554D0
:1035F400004E52465F4552524F525F4E554C4C005E
:103604004E52465F4552524F525F464F52424944D2
:1036140044454E004E52465F4552524F525F494E0A
:1036240056414C49445F41444452004E52465F4522
:1036340052524F525F42555359004E52465F4552C3
:10364400524F525F4D4F44554C455F4E4F545F4966
:103654004E495449414C495A4544004E52465F45EF
:1036640052524F525F4D555445585F494E49545F2D
:103674004641494C4544004E52465F4552524F52D2
:103684005F4D555445585F4C4F434B5F4641494C41
:103694004544004E52465F4552524F525F4D555479
:1036A40045585F554E4C4F434B5F4641494C45444A
:1036B400004E52465F4552524F525F4D5554455845
:1036C4005F434F4E445F494E49545F4641494C4520
:1036D40044004E52465F4552524F525F4D4F44553F
:1036E4004C455F414C52454144595F494E49544908
:1036F400414C495A4544004E52465F4552524F523E
:103704005F53544F524147455F46554C4C004E520F
:10371400465F4552524F525F4150495F4E4F545F8E
:10372400494D504C454D454E544544004E52465F1C
:103734004552524F525F464541545552455F4E4F94
:10374400545F454E41424C4544004E52465F4552FB
:10375400524F525F494F5F50454E44494E47004EC9
:1037640052465F4552524F525F4452565F54574936
:103774005F4552525F4F56455252554E004E524687
:103784005F4552524F525F4452565F5457495F450A
:1037940052525F414E41434B004E52465F45525296
:1037A4004F525F4452565F5457495F4552525F44EB
:1037B4004E41434B004E52465F4552524F525F4278
:1037C4004C455F495053505F52585F504B545F54BF
:1037D40052554E4341544544004E52465F45525261
:1037E4004F525F424C455F495053505F4348414EEE
:1037F4004E454C5F414C52454144595F45584953ED
:103804005453004E52465F4552524F525F424C450C
:103814005F495053505F4C494E4B5F444953434FAB
:103824004E4E4543544544004E52465F4552524F16
:10383400525F424C455F495053505F504545525F7B
:1038440052454A4543544544006E7266785F707031
:10385400695F6368616E6E656C5F616C6C6F630059
:103864006E7266785F7070695F6368616E6E656CB6
:103874005F61737369676E006E7266785F707069FA
:103884005F6368616E6E656C5F666F726B5F6173B8
:103894007369676E006E7266785F7070695F6368E3
:1038A400616E6E656C5F656E61626C6500416C6C27
:1038B4006F6361746564206368616E6E656C3A2041
:1038C40025642E0046756E6374696F6E3A20257305
:1038D4002C206572726F7220636F64653A202573C1
:1038E4002E0041737369676E6564206368616E6E50
:1038F400656C3A2025642C206576656E7420656EAF
:103904006420706F696E743A2025782C207461737A
:103914006B20656E6420706F696E743A2025782E72
:1039240000466F726B2061737369676E6564206310
:1039340068616E6E656C3A2025642C207461736B2B
:1039440020656E6420706F696E743A2025642E00C1
:103954005052530054494D4552005541525400555C
:1039640041525445004750494F544500009000408F
:103974000004000000A00040010400004C696D69CF
:1039840074205265616368656400646174615F6F8B
:103994005B2530645D203D20253064005465726DE4
:1039A400696E616C005254540053454747455200B8
:1039B400202020202020202020682828282820209B
:1039C40020202020202020202020202020202020F3
:1039D40048101010101010101010101010101010AB
:1039E400848484848484848484841010101010104B
:1039F40010818181818181010101010101010101A4
:103A04000101010101010101010101101010101057
:103A14001082828282828202020202020202020274
:103A2400020202020202020202020210101010201C
:103A3400000703200417020108571040800000000B
:103A4400E83B0000AC3A0000C03B000053756E0038
:103A54004D6F6E00547565005765640054687500B9
:103A64004672690053617400000000004A616E00F0
:103A7400466562004D617200417072004D617900CB
:103A84004A756E004A756C00417567005365700095
:103A94004F6374004E6F76004465630000000000BD
:103AA400414D00504D000000E43B0000E03B0000AD
:103AB400E03B0000E03B0000E03B0000E03B000096
:103AC400E03B0000E03B0000E03B0000E03B000086
:103AD400FFFFFFFFFFFFFFFFFFFFFFFFFFFF0000F0
:103AE400203B0000503A00005C3B0000703A0000AC
:103AF400A43A0000043B0000B43B0000103B00006B
:103B0400256D2F25642F25790000000025612025CF
:103B140062202565202554202559000053756E64C4
:103B24006179004D6F6E64617900547565736461E9
:103B340079005765646E65736461790054687572C1
:103B440073646179004672696461790053617475C4
:103B540072646179000000004A616E7561727900D7
:103B64004665627275617279004D617263680041E5
:103B74007072696C004D6179004A756E65004A7512
:103B84006C79004175677573740053657074656D65
:103B9400626572004F63746F626572004E6F766582
:103BA4006D62657200446563656D62657200000054
:103BB40025483A254D3A255300000000A12F000066
:103BC400BD2F0000C92F0000D52F0000F12F0000E9
:103BD400FD2F000009300000173000000000000035
:103BE4002E00000043000000504F534958000000CD
:103BF4000000000000200040000000000020004001
:103C04000000000038320000000000000000000046
:103C14006432000000000000000000000090D003A7
:103C2400443A0000443A0000443A0000443A000098
:043C3400443A00000E
:040000030000026196
:00000001FF
